{
  "address": "0xada3d06b729c8cc3ff06b62105160aa2d0f82675",
  "abi": [
    {
      "inputs": [
        {
          "internalType": "uint256",
          "name": "entrancefee",
          "type": "uint256"
        },
        {
          "internalType": "address",
          "name": "vrfCoordinatorV2",
          "type": "address"
        },
        {
          "internalType": "bytes32",
          "name": "gasLane",
          "type": "bytes32"
        },
        {
          "internalType": "uint64",
          "name": "subscriptionId",
          "type": "uint64"
        },
        {
          "internalType": "uint32",
          "name": "callbackGasLimit",
          "type": "uint32"
        },
        {
          "internalType": "uint256",
          "name": "interval",
          "type": "uint256"
        }
      ],
      "stateMutability": "nonpayable",
      "type": "constructor"
    },
    {
      "inputs": [
        {
          "internalType": "address",
          "name": "have",
          "type": "address"
        },
        {
          "internalType": "address",
          "name": "want",
          "type": "address"
        }
      ],
      "name": "OnlyCoordinatorCanFulfill",
      "type": "error"
    },
    {
      "inputs": [],
      "name": "Raffle__NotEnoughETH",
      "type": "error"
    },
    {
      "inputs": [],
      "name": "Raffle__NotOpen",
      "type": "error"
    },
    {
      "inputs": [],
      "name": "Raffle__TransferFailed",
      "type": "error"
    },
    {
      "inputs": [
        {
          "internalType": "uint256",
          "name": "currentBalance",
          "type": "uint256"
        },
        {
          "internalType": "uint256",
          "name": "numPlayers",
          "type": "uint256"
        },
        {
          "internalType": "uint256",
          "name": "raffleState",
          "type": "uint256"
        }
      ],
      "name": "Raffle__UpkeepNotNeeded",
      "type": "error"
    },
    {
      "anonymous": false,
      "inputs": [
        {
          "indexed": true,
          "internalType": "address",
          "name": "player",
          "type": "address"
        }
      ],
      "name": "RaffleEnter",
      "type": "event"
    },
    {
      "anonymous": false,
      "inputs": [
        {
          "indexed": true,
          "internalType": "uint256",
          "name": "requestId",
          "type": "uint256"
        }
      ],
      "name": "RequestedRaffleWinner",
      "type": "event"
    },
    {
      "anonymous": false,
      "inputs": [
        {
          "indexed": true,
          "internalType": "address",
          "name": "winner",
          "type": "address"
        }
      ],
      "name": "WinnerPicked",
      "type": "event"
    },
    {
      "inputs": [
        {
          "internalType": "bytes",
          "name": "",
          "type": "bytes"
        }
      ],
      "name": "checkUpkeep",
      "outputs": [
        {
          "internalType": "bool",
          "name": "upkeepNeeded",
          "type": "bool"
        },
        {
          "internalType": "bytes",
          "name": "",
          "type": "bytes"
        }
      ],
      "stateMutability": "view",
      "type": "function"
    },
    {
      "inputs": [],
      "name": "enterRaffle",
      "outputs": [],
      "stateMutability": "payable",
      "type": "function"
    },
    {
      "inputs": [],
      "name": "getEntranceFee",
      "outputs": [
        {
          "internalType": "uint256",
          "name": "",
          "type": "uint256"
        }
      ],
      "stateMutability": "view",
      "type": "function"
    },
    {
      "inputs": [],
      "name": "getInterval",
      "outputs": [
        {
          "internalType": "uint256",
          "name": "",
          "type": "uint256"
        }
      ],
      "stateMutability": "view",
      "type": "function"
    },
    {
      "inputs": [],
      "name": "getLatestTimestamp",
      "outputs": [
        {
          "internalType": "uint256",
          "name": "",
          "type": "uint256"
        }
      ],
      "stateMutability": "view",
      "type": "function"
    },
    {
      "inputs": [],
      "name": "getNumWords",
      "outputs": [
        {
          "internalType": "uint32",
          "name": "",
          "type": "uint32"
        }
      ],
      "stateMutability": "pure",
      "type": "function"
    },
    {
      "inputs": [],
      "name": "getNumberOfPlayers",
      "outputs": [
        {
          "internalType": "uint256",
          "name": "",
          "type": "uint256"
        }
      ],
      "stateMutability": "view",
      "type": "function"
    },
    {
      "inputs": [
        {
          "internalType": "uint256",
          "name": "index",
          "type": "uint256"
        }
      ],
      "name": "getPlayer",
      "outputs": [
        {
          "internalType": "address",
          "name": "",
          "type": "address"
        }
      ],
      "stateMutability": "view",
      "type": "function"
    },
    {
      "inputs": [],
      "name": "getRaffleState",
      "outputs": [
        {
          "internalType": "enum Raffle.RaffleState",
          "name": "",
          "type": "uint8"
        }
      ],
      "stateMutability": "view",
      "type": "function"
    },
    {
      "inputs": [],
      "name": "getRecentWinner",
      "outputs": [
        {
          "internalType": "address",
          "name": "",
          "type": "address"
        }
      ],
      "stateMutability": "view",
      "type": "function"
    },
    {
      "inputs": [],
      "name": "getRequestConfirmations",
      "outputs": [
        {
          "internalType": "uint256",
          "name": "",
          "type": "uint256"
        }
      ],
      "stateMutability": "pure",
      "type": "function"
    },
    {
      "inputs": [
        {
          "internalType": "bytes",
          "name": "",
          "type": "bytes"
        }
      ],
      "name": "performUpkeep",
      "outputs": [],
      "stateMutability": "nonpayable",
      "type": "function"
    },
    {
      "inputs": [
        {
          "internalType": "uint256",
          "name": "requestId",
          "type": "uint256"
        },
        {
          "internalType": "uint256[]",
          "name": "randomWords",
          "type": "uint256[]"
        }
      ],
      "name": "rawFulfillRandomWords",
      "outputs": [],
      "stateMutability": "nonpayable",
      "type": "function"
    }
  ],
  "transactionHash": "0xacaa8343fd87d975fcb770be48c43dca1968bf2aeaa1f2fe69d76ad1679bfc3b",
  "args": [
    "100000000000000000",
    "0x6168499c0cFfCaCD319c818142124B7A15E857ab",
    "0xd89b2bf150e3b9e13446986e571fb9cab24b13cea0a43ea20a6049a85cc807cc",
    "9426",
    "500000",
    "30"
  ],
  "numDeployments": 5,
  "solcInputHash": "79dedfb7216d7930fdf5c4394b83f4e2",
  "bytecode": "0x6101406040523480156200001257600080fd5b50604051620017e2380380620017e2833981810160405281019062000038919062000292565b848073ffffffffffffffffffffffffffffffffffffffff1660808173ffffffffffffffffffffffffffffffffffffffff168152505050856000819055508473ffffffffffffffffffffffffffffffffffffffff1660a08173ffffffffffffffffffffffffffffffffffffffff16815250508360c081815250508267ffffffffffffffff1660e08167ffffffffffffffff16815250508163ffffffff166101008163ffffffff16815250506000600260146101000a81548160ff021916908360018111156200010b576200010a6200032e565b5b0217905550426003819055508061012081815250505050505050506200035d565b600080fd5b6000819050919050565b620001468162000131565b81146200015257600080fd5b50565b60008151905062000166816200013b565b92915050565b600073ffffffffffffffffffffffffffffffffffffffff82169050919050565b600062000199826200016c565b9050919050565b620001ab816200018c565b8114620001b757600080fd5b50565b600081519050620001cb81620001a0565b92915050565b6000819050919050565b620001e681620001d1565b8114620001f257600080fd5b50565b6000815190506200020681620001db565b92915050565b600067ffffffffffffffff82169050919050565b6200022b816200020c565b81146200023757600080fd5b50565b6000815190506200024b8162000220565b92915050565b600063ffffffff82169050919050565b6200026c8162000251565b81146200027857600080fd5b50565b6000815190506200028c8162000261565b92915050565b60008060008060008060c08789031215620002b257620002b16200012c565b5b6000620002c289828a0162000155565b9650506020620002d589828a01620001ba565b9550506040620002e889828a01620001f5565b9450506060620002fb89828a016200023a565b93505060806200030e89828a016200027b565b92505060a06200032189828a0162000155565b9150509295509295509295565b7f4e487b7100000000000000000000000000000000000000000000000000000000600052602160045260246000fd5b60805160a05160c05160e0516101005161012051611427620003bb600039600081816107b001526108170152600061065f0152600061063c0152600061061b015260006105df015260008181610318015261036c01526114276000f3fe6080604052600436106100c25760003560e01c806353a2c19a1161007f57806391ad27b41161005957806391ad27b414610238578063e55ae4e814610263578063f43b52cb146102a0578063fd6673f5146102cb576100c2565b806353a2c19a146101a45780635f1b0fd8146101cf5780636e04ff0d146101fa576100c2565b806309bc33a7146100c7578063115cbaf5146100f25780631fe543e31461011d5780632cfcc539146101465780634585e33b14610150578063473f1ddc14610179575b600080fd5b3480156100d357600080fd5b506100dc6102f6565b6040516100e99190610b8d565b60405180910390f35b3480156100fe57600080fd5b506101076102ff565b6040516101149190610c1f565b60405180910390f35b34801561012957600080fd5b50610144600480360381019061013f9190610dd3565b610316565b005b61014e6103d6565b005b34801561015c57600080fd5b5061017760048036038101906101729190610e8a565b610527565b005b34801561018557600080fd5b5061018e610727565b60405161019b9190610f18565b60405180910390f35b3480156101b057600080fd5b506101b9610751565b6040516101c69190610f52565b60405180910390f35b3480156101db57600080fd5b506101e461075a565b6040516101f19190610b8d565b60405180910390f35b34801561020657600080fd5b50610221600480360381019061021c9190611022565b610767565b60405161022f92919061110e565b60405180910390f35b34801561024457600080fd5b5061024d610813565b60405161025a9190610b8d565b60405180910390f35b34801561026f57600080fd5b5061028a6004803603810190610285919061113e565b61083b565b6040516102979190610f18565b60405180910390f35b3480156102ac57600080fd5b506102b5610883565b6040516102c29190610b8d565b60405180910390f35b3480156102d757600080fd5b506102e061088d565b6040516102ed9190610b8d565b60405180910390f35b60008054905090565b6000600260149054906101000a900460ff16905090565b7f000000000000000000000000000000000000000000000000000000000000000073ffffffffffffffffffffffffffffffffffffffff163373ffffffffffffffffffffffffffffffffffffffff16146103c857337f00000000000000000000000000000000000000000000000000000000000000006040517f1cf993f40000000000000000000000000000000000000000000000000000000081526004016103bf92919061116b565b60405180910390fd5b6103d2828261089a565b5050565b600054341015610412576040517f9894879b00000000000000000000000000000000000000000000000000000000815260040160405180910390fd5b6000600181111561042657610425610ba8565b5b600260149054906101000a900460ff16600181111561044857610447610ba8565b5b1461047f576040517f1425571c00000000000000000000000000000000000000000000000000000000815260040160405180910390fd5b6001339080600181540180825580915050600190039060005260206000200160009091909190916101000a81548173ffffffffffffffffffffffffffffffffffffffff021916908373ffffffffffffffffffffffffffffffffffffffff1602179055503373ffffffffffffffffffffffffffffffffffffffff167f0805e1d667bddb8a95f0f09880cf94f403fb596ce79928d9f29b74203ba284d460405160405180910390a2565b600061054160405180602001604052806000815250610767565b509050806105b05747600180549050600260149054906101000a900460ff16600181111561057257610571610ba8565b5b6040517f584327aa0000000000000000000000000000000000000000000000000000000081526004016105a793929190611194565b60405180910390fd5b6001600260146101000a81548160ff021916908360018111156105d6576105d5610ba8565b5b021790555060007f000000000000000000000000000000000000000000000000000000000000000073ffffffffffffffffffffffffffffffffffffffff16635d3b1d307f00000000000000000000000000000000000000000000000000000000000000007f000000000000000000000000000000000000000000000000000000000000000060037f000000000000000000000000000000000000000000000000000000000000000060016040518663ffffffff1660e01b81526004016106a0959493929190611224565b602060405180830381600087803b1580156106ba57600080fd5b505af11580156106ce573d6000803e3d6000fd5b505050506040513d601f19601f820116820180604052508101906106f2919061128c565b9050807fcd6e45c8998311cab7e9d4385596cac867e20a0587194b954fa3a731c93ce78b60405160405180910390a250505050565b6000600260009054906101000a900473ffffffffffffffffffffffffffffffffffffffff16905090565b60006001905090565b6000600361ffff16905090565b6000606060008060018111156107805761077f610ba8565b5b600260149054906101000a900460ff1660018111156107a2576107a1610ba8565b5b1490506000804711905060007f0000000000000000000000000000000000000000000000000000000000000000600354426107dd91906112e8565b1190506000806001805490501190508380156107f65750825b80156107ff5750815b80156108085750805b955050505050915091565b60007f0000000000000000000000000000000000000000000000000000000000000000905090565b6000600182815481106108515761085061131c565b5b9060005260206000200160009054906101000a900473ffffffffffffffffffffffffffffffffffffffff169050919050565b6000600354905090565b6000600180549050905090565b6000600180549050826000815181106108b6576108b561131c565b5b60200260200101516108c8919061137a565b90506000600182815481106108e0576108df61131c565b5b9060005260206000200160009054906101000a900473ffffffffffffffffffffffffffffffffffffffff16905080600260006101000a81548173ffffffffffffffffffffffffffffffffffffffff021916908373ffffffffffffffffffffffffffffffffffffffff1602179055506000600260146101000a81548160ff0219169083600181111561097457610973610ba8565b5b0217905550600067ffffffffffffffff81111561099457610993610c90565b5b6040519080825280602002602001820160405280156109c25781602001602082028036833780820191505090505b50600190805190602001906109d8929190610acd565b504260038190555060008173ffffffffffffffffffffffffffffffffffffffff1647604051610a06906113dc565b60006040518083038185875af1925050503d8060008114610a43576040519150601f19603f3d011682016040523d82523d6000602084013e610a48565b606091505b5050905080610a83576040517fa1d04b3900000000000000000000000000000000000000000000000000000000815260040160405180910390fd5b8173ffffffffffffffffffffffffffffffffffffffff167f5b690ec4a06fe979403046eaeea5b3ce38524683c3001f662c8b5a829632f7df60405160405180910390a25050505050565b828054828255906000526020600020908101928215610b46579160200282015b82811115610b455782518260006101000a81548173ffffffffffffffffffffffffffffffffffffffff021916908373ffffffffffffffffffffffffffffffffffffffff16021790555091602001919060010190610aed565b5b509050610b539190610b57565b5090565b5b80821115610b70576000816000905550600101610b58565b5090565b6000819050919050565b610b8781610b74565b82525050565b6000602082019050610ba26000830184610b7e565b92915050565b7f4e487b7100000000000000000000000000000000000000000000000000000000600052602160045260246000fd5b60028110610be857610be7610ba8565b5b50565b6000819050610bf982610bd7565b919050565b6000610c0982610beb565b9050919050565b610c1981610bfe565b82525050565b6000602082019050610c346000830184610c10565b92915050565b6000604051905090565b600080fd5b600080fd5b610c5781610b74565b8114610c6257600080fd5b50565b600081359050610c7481610c4e565b92915050565b600080fd5b6000601f19601f8301169050919050565b7f4e487b7100000000000000000000000000000000000000000000000000000000600052604160045260246000fd5b610cc882610c7f565b810181811067ffffffffffffffff82111715610ce757610ce6610c90565b5b80604052505050565b6000610cfa610c3a565b9050610d068282610cbf565b919050565b600067ffffffffffffffff821115610d2657610d25610c90565b5b602082029050602081019050919050565b600080fd5b6000610d4f610d4a84610d0b565b610cf0565b90508083825260208201905060208402830185811115610d7257610d71610d37565b5b835b81811015610d9b5780610d878882610c65565b845260208401935050602081019050610d74565b5050509392505050565b600082601f830112610dba57610db9610c7a565b5b8135610dca848260208601610d3c565b91505092915050565b60008060408385031215610dea57610de9610c44565b5b6000610df885828601610c65565b925050602083013567ffffffffffffffff811115610e1957610e18610c49565b5b610e2585828601610da5565b9150509250929050565b600080fd5b60008083601f840112610e4a57610e49610c7a565b5b8235905067ffffffffffffffff811115610e6757610e66610e2f565b5b602083019150836001820283011115610e8357610e82610d37565b5b9250929050565b60008060208385031215610ea157610ea0610c44565b5b600083013567ffffffffffffffff811115610ebf57610ebe610c49565b5b610ecb85828601610e34565b92509250509250929050565b600073ffffffffffffffffffffffffffffffffffffffff82169050919050565b6000610f0282610ed7565b9050919050565b610f1281610ef7565b82525050565b6000602082019050610f2d6000830184610f09565b92915050565b600063ffffffff82169050919050565b610f4c81610f33565b82525050565b6000602082019050610f676000830184610f43565b92915050565b600080fd5b600067ffffffffffffffff821115610f8d57610f8c610c90565b5b610f9682610c7f565b9050602081019050919050565b82818337600083830152505050565b6000610fc5610fc084610f72565b610cf0565b905082815260208101848484011115610fe157610fe0610f6d565b5b610fec848285610fa3565b509392505050565b600082601f83011261100957611008610c7a565b5b8135611019848260208601610fb2565b91505092915050565b60006020828403121561103857611037610c44565b5b600082013567ffffffffffffffff81111561105657611055610c49565b5b61106284828501610ff4565b91505092915050565b60008115159050919050565b6110808161106b565b82525050565b600081519050919050565b600082825260208201905092915050565b60005b838110156110c05780820151818401526020810190506110a5565b838111156110cf576000848401525b50505050565b60006110e082611086565b6110ea8185611091565b93506110fa8185602086016110a2565b61110381610c7f565b840191505092915050565b60006040820190506111236000830185611077565b818103602083015261113581846110d5565b90509392505050565b60006020828403121561115457611153610c44565b5b600061116284828501610c65565b91505092915050565b60006040820190506111806000830185610f09565b61118d6020830184610f09565b9392505050565b60006060820190506111a96000830186610b7e565b6111b66020830185610b7e565b6111c36040830184610b7e565b949350505050565b6000819050919050565b6111de816111cb565b82525050565b600067ffffffffffffffff82169050919050565b611201816111e4565b82525050565b600061ffff82169050919050565b61121e81611207565b82525050565b600060a08201905061123960008301886111d5565b61124660208301876111f8565b6112536040830186611215565b6112606060830185610f43565b61126d6080830184610f43565b9695505050505050565b60008151905061128681610c4e565b92915050565b6000602082840312156112a2576112a1610c44565b5b60006112b084828501611277565b91505092915050565b7f4e487b7100000000000000000000000000000000000000000000000000000000600052601160045260246000fd5b60006112f382610b74565b91506112fe83610b74565b925082821015611311576113106112b9565b5b828203905092915050565b7f4e487b7100000000000000000000000000000000000000000000000000000000600052603260045260246000fd5b7f4e487b7100000000000000000000000000000000000000000000000000000000600052601260045260246000fd5b600061138582610b74565b915061139083610b74565b9250826113a05761139f61134b565b5b828206905092915050565b600081905092915050565b50565b60006113c66000836113ab565b91506113d1826113b6565b600082019050919050565b60006113e7826113b9565b915081905091905056fea2646970667358221220e79fe797fe175194a2e6d08112d150c91cc7f1db67b791954bd5aff1fe1ad74364736f6c63430008090033",
  "devdoc": {
    "author": "Srikanth Alva",
    "details": "This implements the Chainlink VRF Version2 and Chainlink Keepers",
    "kind": "dev",
    "methods": {
      "checkUpkeep(bytes)": {
        "details": "This is the function that the Chainlink Keeper nodes call they look for `upkeepNeeded` to return True. the following should be true for this to return true: 1. The time interval has passed between raffle runs. 2. The lottery is open. 3. The contract has ETH. 4. Implicity, your subscription is funded with LINK. 5. Just random blah blah"
      }
    },
    "title": "A Raffle Contract",
    "version": 1
  },
  "userdoc": {
    "kind": "user",
    "methods": {},
    "notice": "This contract is for raffle contract",
    "version": 1
  },
  "storageLayout": {
    "storage": [
      {
        "astId": 196,
        "contract": "contracts/Raffle.sol:Raffle",
        "label": "i_entranceFee",
        "offset": 0,
        "slot": "0",
        "type": "t_uint256"
      },
      {
        "astId": 199,
        "contract": "contracts/Raffle.sol:Raffle",
        "label": "s_players",
        "offset": 0,
        "slot": "1",
        "type": "t_array(t_address_payable)dyn_storage"
      },
      {
        "astId": 216,
        "contract": "contracts/Raffle.sol:Raffle",
        "label": "s_recentWinner",
        "offset": 0,
        "slot": "2",
        "type": "t_address"
      },
      {
        "astId": 219,
        "contract": "contracts/Raffle.sol:Raffle",
        "label": "s_raffleState",
        "offset": 20,
        "slot": "2",
        "type": "t_enum(RaffleState)194"
      },
      {
        "astId": 221,
        "contract": "contracts/Raffle.sol:Raffle",
        "label": "s_lastTimeStamp",
        "offset": 0,
        "slot": "3",
        "type": "t_uint256"
      }
    ],
    "types": {
      "t_address": {
        "encoding": "inplace",
        "label": "address",
        "numberOfBytes": "20"
      },
      "t_address_payable": {
        "encoding": "inplace",
        "label": "address payable",
        "numberOfBytes": "20"
      },
      "t_array(t_address_payable)dyn_storage": {
        "base": "t_address_payable",
        "encoding": "dynamic_array",
        "label": "address payable[]",
        "numberOfBytes": "32"
      },
      "t_enum(RaffleState)194": {
        "encoding": "inplace",
        "label": "enum Raffle.RaffleState",
        "numberOfBytes": "1"
      },
      "t_uint256": {
        "encoding": "inplace",
        "label": "uint256",
        "numberOfBytes": "32"
      }
    }
  }
}